{"abi":[{"type":"function","name":"ciphersByRound","inputs":[{"name":"","type":"uint256","internalType":"uint256"},{"name":"","type":"uint256","internalType":"uint256"}],"outputs":[{"name":"poster","type":"address","internalType":"address"},{"name":"roundId","type":"uint256","internalType":"uint256"},{"name":"cid","type":"string","internalType":"string"},{"name":"root","type":"bytes32","internalType":"bytes32"},{"name":"timestamp","type":"uint256","internalType":"uint256"}],"stateMutability":"view"},{"type":"function","name":"getCiphers","inputs":[{"name":"roundId","type":"uint256","internalType":"uint256"}],"outputs":[{"name":"","type":"tuple[]","internalType":"struct CipherStore.Cipher[]","components":[{"name":"poster","type":"address","internalType":"address"},{"name":"roundId","type":"uint256","internalType":"uint256"},{"name":"cid","type":"string","internalType":"string"},{"name":"root","type":"bytes32","internalType":"bytes32"},{"name":"timestamp","type":"uint256","internalType":"uint256"}]}],"stateMutability":"view"},{"type":"function","name":"postCipher","inputs":[{"name":"roundId","type":"uint256","internalType":"uint256"},{"name":"cid","type":"string","internalType":"string"},{"name":"root","type":"bytes32","internalType":"bytes32"}],"outputs":[],"stateMutability":"nonpayable"},{"type":"event","name":"CipherPosted","inputs":[{"name":"roundId","type":"uint256","indexed":true,"internalType":"uint256"},{"name":"poster","type":"address","indexed":true,"internalType":"address"},{"name":"cid","type":"string","indexed":false,"internalType":"string"},{"name":"root","type":"bytes32","indexed":false,"internalType":"bytes32"}],"anonymous":false}],"bytecode":{"object":"0x6080604052348015600e575f5ffd5b50610cd48061001c5f395ff3fe608060405234801561000f575f5ffd5b506004361061003f575f3560e01c80630e2f2f8d14610043578063586d271314610077578063e888ae56146100a7575b5f5ffd5b61005d600480360381019061005891906104e5565b6100c3565b60405161006e9594939291906105f9565b60405180910390f35b610091600480360381019061008c9190610651565b6101b3565b60405161009e919061081f565b60405180910390f35b6100c160048036038101906100bc91906108ca565b610321565b005b5f602052815f5260405f2081815481106100db575f80fd5b905f5260205f2090600502015f9150915050805f015f9054906101000a900473ffffffffffffffffffffffffffffffffffffffff169080600101549080600201805461012690610968565b80601f016020809104026020016040519081016040528092919081815260200182805461015290610968565b801561019d5780601f106101745761010080835404028352916020019161019d565b820191905f5260205f20905b81548152906001019060200180831161018057829003601f168201915b5050505050908060030154908060040154905085565b60605f5f8381526020019081526020015f20805480602002602001604051908101604052809291908181526020015f905b82821015610316578382905f5260205f2090600502016040518060a00160405290815f82015f9054906101000a900473ffffffffffffffffffffffffffffffffffffffff1673ffffffffffffffffffffffffffffffffffffffff1673ffffffffffffffffffffffffffffffffffffffff1681526020016001820154815260200160028201805461027390610968565b80601f016020809104026020016040519081016040528092919081815260200182805461029f90610968565b80156102ea5780601f106102c1576101008083540402835291602001916102ea565b820191905f5260205f20905b8154815290600101906020018083116102cd57829003601f168201915b5050505050815260200160038201548152602001600482015481525050815260200190600101906101e4565b505050509050919050565b5f5f8581526020019081526020015f206040518060a001604052803373ffffffffffffffffffffffffffffffffffffffff16815260200186815260200185858080601f0160208091040260200160405190810160405280939291908181526020018383808284375f81840152601f19601f82011690508083019250505050505050815260200183815260200142815250908060018154018082558091505060019003905f5260205f2090600502015f909190919091505f820151815f015f6101000a81548173ffffffffffffffffffffffffffffffffffffffff021916908373ffffffffffffffffffffffffffffffffffffffff16021790555060208201518160010155604082015181600201908161043a9190610b65565b50606082015181600301556080820151816004015550503373ffffffffffffffffffffffffffffffffffffffff16847fd8f54f30163808af6ce708c2a4d062e5f84b3467098884d98cf2fd3282ab597485858560405161049c93929190610c6e565b60405180910390a350505050565b5f5ffd5b5f5ffd5b5f819050919050565b6104c4816104b2565b81146104ce575f5ffd5b50565b5f813590506104df816104bb565b92915050565b5f5f604083850312156104fb576104fa6104aa565b5b5f610508858286016104d1565b9250506020610519858286016104d1565b9150509250929050565b5f73ffffffffffffffffffffffffffffffffffffffff82169050919050565b5f61054c82610523565b9050919050565b61055c81610542565b82525050565b61056b816104b2565b82525050565b5f81519050919050565b5f82825260208201905092915050565b8281835e5f83830152505050565b5f601f19601f8301169050919050565b5f6105b382610571565b6105bd818561057b565b93506105cd81856020860161058b565b6105d681610599565b840191505092915050565b5f819050919050565b6105f3816105e1565b82525050565b5f60a08201905061060c5f830188610553565b6106196020830187610562565b818103604083015261062b81866105a9565b905061063a60608301856105ea565b6106476080830184610562565b9695505050505050565b5f60208284031215610666576106656104aa565b5b5f610673848285016104d1565b91505092915050565b5f81519050919050565b5f82825260208201905092915050565b5f819050602082019050919050565b6106ae81610542565b82525050565b6106bd816104b2565b82525050565b5f82825260208201905092915050565b5f6106dd82610571565b6106e781856106c3565b93506106f781856020860161058b565b61070081610599565b840191505092915050565b610714816105e1565b82525050565b5f60a083015f83015161072f5f8601826106a5565b50602083015161074260208601826106b4565b506040830151848203604086015261075a82826106d3565b915050606083015161076f606086018261070b565b50608083015161078260808601826106b4565b508091505092915050565b5f610798838361071a565b905092915050565b5f602082019050919050565b5f6107b68261067c565b6107c08185610686565b9350836020820285016107d285610696565b805f5b8581101561080d57848403895281516107ee858261078d565b94506107f9836107a0565b925060208a019950506001810190506107d5565b50829750879550505050505092915050565b5f6020820190508181035f83015261083781846107ac565b905092915050565b5f5ffd5b5f5ffd5b5f5ffd5b5f5f83601f8401126108605761085f61083f565b5b8235905067ffffffffffffffff81111561087d5761087c610843565b5b60208301915083600182028301111561089957610898610847565b5b9250929050565b6108a9816105e1565b81146108b3575f5ffd5b50565b5f813590506108c4816108a0565b92915050565b5f5f5f5f606085870312156108e2576108e16104aa565b5b5f6108ef878288016104d1565b945050602085013567ffffffffffffffff8111156109105761090f6104ae565b5b61091c8782880161084b565b9350935050604061092f878288016108b6565b91505092959194509250565b7f4e487b71000000000000000000000000000000000000000000000000000000005f52602260045260245ffd5b5f600282049050600182168061097f57607f821691505b6020821081036109925761099161093b565b5b50919050565b7f4e487b71000000000000000000000000000000000000000000000000000000005f52604160045260245ffd5b5f819050815f5260205f209050919050565b5f6020601f8301049050919050565b5f82821b905092915050565b5f60088302610a217fffffffffffffffffffffffffffffffffffffffffffffffffffffffffffffffff826109e6565b610a2b86836109e6565b95508019841693508086168417925050509392505050565b5f819050919050565b5f610a66610a61610a5c846104b2565b610a43565b6104b2565b9050919050565b5f819050919050565b610a7f83610a4c565b610a93610a8b82610a6d565b8484546109f2565b825550505050565b5f5f905090565b610aaa610a9b565b610ab5818484610a76565b505050565b5b81811015610ad857610acd5f82610aa2565b600181019050610abb565b5050565b601f821115610b1d57610aee816109c5565b610af7846109d7565b81016020851015610b06578190505b610b1a610b12856109d7565b830182610aba565b50505b505050565b5f82821c905092915050565b5f610b3d5f1984600802610b22565b1980831691505092915050565b5f610b558383610b2e565b9150826002028217905092915050565b610b6e82610571565b67ffffffffffffffff811115610b8757610b86610998565b5b610b918254610968565b610b9c828285610adc565b5f60209050601f831160018114610bcd575f8415610bbb578287015190505b610bc58582610b4a565b865550610c2c565b601f198416610bdb866109c5565b5f5b82811015610c0257848901518255600182019150602085019450602081019050610bdd565b86831015610c1f5784890151610c1b601f891682610b2e565b8355505b6001600288020188555050505b505050505050565b828183375f83830152505050565b5f610c4d838561057b565b9350610c5a838584610c34565b610c6383610599565b840190509392505050565b5f6040820190508181035f830152610c87818587610c42565b9050610c9660208301846105ea565b94935050505056fea264697066735822122069b29ddd6bef3cf949ae7b0a757b65db1b2bec5b5c6ee1de8b1105b894ebbf8e64736f6c634300081e0033","linkReferences":{}},"methodIdentifiers":{"ciphersByRound(uint256,uint256)":"0e2f2f8d","getCiphers(uint256)":"586d2713","postCipher(uint256,string,bytes32)":"e888ae56"},"id":0}