{"abi":[{"type":"function","name":"getRoundInfo","inputs":[{"name":"roundId","type":"uint256","internalType":"uint256"}],"outputs":[{"name":"","type":"tuple","internalType":"struct DKGRegistry.Round","components":[{"name":"initiator","type":"address","internalType":"address"},{"name":"roundId","type":"uint256","internalType":"uint256"},{"name":"merkleRoot","type":"bytes32","internalType":"bytes32"},{"name":"metadataCID","type":"string","internalType":"string"},{"name":"timestamp","type":"uint256","internalType":"uint256"}]}],"stateMutability":"view"},{"type":"function","name":"lastRound","inputs":[],"outputs":[{"name":"","type":"uint256","internalType":"uint256"}],"stateMutability":"view"},{"type":"function","name":"registerRound","inputs":[{"name":"roundId","type":"uint256","internalType":"uint256"},{"name":"merkleRoot","type":"bytes32","internalType":"bytes32"},{"name":"metadataCID","type":"string","internalType":"string"}],"outputs":[],"stateMutability":"nonpayable"},{"type":"function","name":"rounds","inputs":[{"name":"","type":"uint256","internalType":"uint256"}],"outputs":[{"name":"initiator","type":"address","internalType":"address"},{"name":"roundId","type":"uint256","internalType":"uint256"},{"name":"merkleRoot","type":"bytes32","internalType":"bytes32"},{"name":"metadataCID","type":"string","internalType":"string"},{"name":"timestamp","type":"uint256","internalType":"uint256"}],"stateMutability":"view"},{"type":"event","name":"RoundRegistered","inputs":[{"name":"roundId","type":"uint256","indexed":true,"internalType":"uint256"},{"name":"initiator","type":"address","indexed":true,"internalType":"address"},{"name":"merkleRoot","type":"bytes32","indexed":false,"internalType":"bytes32"},{"name":"cid","type":"string","indexed":false,"internalType":"string"}],"anonymous":false}],"bytecode":{"object":"0x6080604052348015600e575f5ffd5b50610ca78061001c5f395ff3fe608060405234801561000f575f5ffd5b506004361061004a575f3560e01c806382bc07e61461004e57806388c3ffb01461006c5780638c65c81f1461009c5780639aa906bd146100d0575b5f5ffd5b6100566100ec565b604051610063919061050d565b60405180910390f35b61008660048036038101906100819190610558565b6100f2565b60405161009391906106cc565b60405180910390f35b6100b660048036038101906100b19190610558565b61021e565b6040516100c7959493929190610752565b60405180910390f35b6100ea60048036038101906100e59190610835565b6102f4565b005b60015481565b6100fa6104b4565b5f5f8381526020019081526020015f206040518060a00160405290815f82015f9054906101000a900473ffffffffffffffffffffffffffffffffffffffff1673ffffffffffffffffffffffffffffffffffffffff1673ffffffffffffffffffffffffffffffffffffffff168152602001600182015481526020016002820154815260200160038201805461018d906108d3565b80601f01602080910402602001604051908101604052809291908181526020018280546101b9906108d3565b80156102045780601f106101db57610100808354040283529160200191610204565b820191905f5260205f20905b8154815290600101906020018083116101e757829003601f168201915b505050505081526020016004820154815250509050919050565b5f602052805f5260405f205f91509050805f015f9054906101000a900473ffffffffffffffffffffffffffffffffffffffff169080600101549080600201549080600301805461026d906108d3565b80601f0160208091040260200160405190810160405280929190818152602001828054610299906108d3565b80156102e45780601f106102bb576101008083540402835291602001916102e4565b820191905f5260205f20905b8154815290600101906020018083116102c757829003601f168201915b5050505050908060040154905085565b5f5f5f8681526020019081526020015f206004015414610349576040517f08c379a00000000000000000000000000000000000000000000000000000000081526004016103409061094d565b60405180910390fd5b6040518060a001604052803373ffffffffffffffffffffffffffffffffffffffff16815260200185815260200184815260200183838080601f0160208091040260200160405190810160405280939291908181526020018383808284375f81840152601f19601f820116905080830192505050505050508152602001428152505f5f8681526020019081526020015f205f820151815f015f6101000a81548173ffffffffffffffffffffffffffffffffffffffff021916908373ffffffffffffffffffffffffffffffffffffffff160217905550602082015181600101556040820151816002015560608201518160030190816104469190610b38565b5060808201518160040155905050836001819055503373ffffffffffffffffffffffffffffffffffffffff16847f4d25d5e619aea3b3a913d51362181decab6e7c656c0df225e24514d2221fdf5b8585856040516104a693929190610c41565b60405180910390a350505050565b6040518060a001604052805f73ffffffffffffffffffffffffffffffffffffffff1681526020015f81526020015f8152602001606081526020015f81525090565b5f819050919050565b610507816104f5565b82525050565b5f6020820190506105205f8301846104fe565b92915050565b5f5ffd5b5f5ffd5b610537816104f5565b8114610541575f5ffd5b50565b5f813590506105528161052e565b92915050565b5f6020828403121561056d5761056c610526565b5b5f61057a84828501610544565b91505092915050565b5f73ffffffffffffffffffffffffffffffffffffffff82169050919050565b5f6105ac82610583565b9050919050565b6105bc816105a2565b82525050565b6105cb816104f5565b82525050565b5f819050919050565b6105e3816105d1565b82525050565b5f81519050919050565b5f82825260208201905092915050565b8281835e5f83830152505050565b5f601f19601f8301169050919050565b5f61062b826105e9565b61063581856105f3565b9350610645818560208601610603565b61064e81610611565b840191505092915050565b5f60a083015f83015161066e5f8601826105b3565b50602083015161068160208601826105c2565b50604083015161069460408601826105da565b50606083015184820360608601526106ac8282610621565b91505060808301516106c160808601826105c2565b508091505092915050565b5f6020820190508181035f8301526106e48184610659565b905092915050565b6106f5816105a2565b82525050565b610704816105d1565b82525050565b5f82825260208201905092915050565b5f610724826105e9565b61072e818561070a565b935061073e818560208601610603565b61074781610611565b840191505092915050565b5f60a0820190506107655f8301886106ec565b61077260208301876104fe565b61077f60408301866106fb565b8181036060830152610791818561071a565b90506107a060808301846104fe565b9695505050505050565b6107b3816105d1565b81146107bd575f5ffd5b50565b5f813590506107ce816107aa565b92915050565b5f5ffd5b5f5ffd5b5f5ffd5b5f5f83601f8401126107f5576107f46107d4565b5b8235905067ffffffffffffffff811115610812576108116107d8565b5b60208301915083600182028301111561082e5761082d6107dc565b5b9250929050565b5f5f5f5f6060858703121561084d5761084c610526565b5b5f61085a87828801610544565b945050602061086b878288016107c0565b935050604085013567ffffffffffffffff81111561088c5761088b61052a565b5b610898878288016107e0565b925092505092959194509250565b7f4e487b71000000000000000000000000000000000000000000000000000000005f52602260045260245ffd5b5f60028204905060018216806108ea57607f821691505b6020821081036108fd576108fc6108a6565b5b50919050565b7f526f756e6420616c7265616479206578697374730000000000000000000000005f82015250565b5f61093760148361070a565b915061094282610903565b602082019050919050565b5f6020820190508181035f8301526109648161092b565b9050919050565b7f4e487b71000000000000000000000000000000000000000000000000000000005f52604160045260245ffd5b5f819050815f5260205f209050919050565b5f6020601f8301049050919050565b5f82821b905092915050565b5f600883026109f47fffffffffffffffffffffffffffffffffffffffffffffffffffffffffffffffff826109b9565b6109fe86836109b9565b95508019841693508086168417925050509392505050565b5f819050919050565b5f610a39610a34610a2f846104f5565b610a16565b6104f5565b9050919050565b5f819050919050565b610a5283610a1f565b610a66610a5e82610a40565b8484546109c5565b825550505050565b5f5f905090565b610a7d610a6e565b610a88818484610a49565b505050565b5b81811015610aab57610aa05f82610a75565b600181019050610a8e565b5050565b601f821115610af057610ac181610998565b610aca846109aa565b81016020851015610ad9578190505b610aed610ae5856109aa565b830182610a8d565b50505b505050565b5f82821c905092915050565b5f610b105f1984600802610af5565b1980831691505092915050565b5f610b288383610b01565b9150826002028217905092915050565b610b41826105e9565b67ffffffffffffffff811115610b5a57610b5961096b565b5b610b6482546108d3565b610b6f828285610aaf565b5f60209050601f831160018114610ba0575f8415610b8e578287015190505b610b988582610b1d565b865550610bff565b601f198416610bae86610998565b5f5b82811015610bd557848901518255600182019150602085019450602081019050610bb0565b86831015610bf25784890151610bee601f891682610b01565b8355505b6001600288020188555050505b505050505050565b828183375f83830152505050565b5f610c20838561070a565b9350610c2d838584610c07565b610c3683610611565b840190509392505050565b5f604082019050610c545f8301866106fb565b8181036020830152610c67818486610c15565b905094935050505056fea26469706673582212202e9c67e1b35d6cc23d879a09cec464ecdf703970cfd78068b098a26fa4b93bf164736f6c634300081e0033","linkReferences":{}},"methodIdentifiers":{"getRoundInfo(uint256)":"88c3ffb0","lastRound()":"82bc07e6","registerRound(uint256,bytes32,string)":"9aa906bd","rounds(uint256)":"8c65c81f"},"id":1}